{
  "_format": "hh-sol-artifact-1",
  "contractName": "VestingContract",
  "sourceName": "contracts/FFT/Vesting.sol",
  "abi": [
    {
      "anonymous": false,
      "inputs": [
        {
          "indexed": true,
          "internalType": "address",
          "name": "previousOwner",
          "type": "address"
        },
        {
          "indexed": true,
          "internalType": "address",
          "name": "newOwner",
          "type": "address"
        }
      ],
      "name": "OwnershipTransferred",
      "type": "event"
    },
    {
      "inputs": [
        {
          "internalType": "address",
          "name": "",
          "type": "address"
        }
      ],
      "name": "beneficiaries",
      "outputs": [
        {
          "internalType": "uint256",
          "name": "vestEnd",
          "type": "uint256"
        },
        {
          "internalType": "uint256",
          "name": "vested",
          "type": "uint256"
        }
      ],
      "stateMutability": "view",
      "type": "function"
    },
    {
      "inputs": [],
      "name": "owner",
      "outputs": [
        {
          "internalType": "address",
          "name": "",
          "type": "address"
        }
      ],
      "stateMutability": "view",
      "type": "function"
    },
    {
      "inputs": [],
      "name": "renounceOwnership",
      "outputs": [],
      "stateMutability": "nonpayable",
      "type": "function"
    },
    {
      "inputs": [],
      "name": "testValue",
      "outputs": [
        {
          "internalType": "uint256",
          "name": "",
          "type": "uint256"
        }
      ],
      "stateMutability": "view",
      "type": "function"
    },
    {
      "inputs": [
        {
          "internalType": "address",
          "name": "newOwner",
          "type": "address"
        }
      ],
      "name": "transferOwnership",
      "outputs": [],
      "stateMutability": "nonpayable",
      "type": "function"
    },
    {
      "inputs": [
        {
          "internalType": "address",
          "name": "addr",
          "type": "address"
        },
        {
          "internalType": "uint256",
          "name": "amount",
          "type": "uint256"
        }
      ],
      "name": "vest",
      "outputs": [],
      "stateMutability": "nonpayable",
      "type": "function"
    }
  ],
  "bytecode": "0x6080604052600060015534801561001557600080fd5b5061003261002761003760201b60201c565b61003f60201b60201c565b610103565b600033905090565b60008060009054906101000a900473ffffffffffffffffffffffffffffffffffffffff169050816000806101000a81548173ffffffffffffffffffffffffffffffffffffffff021916908373ffffffffffffffffffffffffffffffffffffffff1602179055508173ffffffffffffffffffffffffffffffffffffffff168173ffffffffffffffffffffffffffffffffffffffff167f8be0079c531659141344cd1fd0a4f28419497f9722a3daafe3b4186f6b6457e060405160405180910390a35050565b6108d7806101126000396000f3fe608060405234801561001057600080fd5b50600436106100625760003560e01c806301567739146100675780632797c6c814610098578063715018a6146100b45780638af5de72146100be5780638da5cb5b146100dc578063f2fde38b146100fa575b600080fd5b610081600480360381019061007c9190610581565b610116565b60405161008f9291906105c7565b60405180910390f35b6100b260048036038101906100ad919061061c565b61013a565b005b6100bc6102a3565b005b6100c661032b565b6040516100d3919061065c565b60405180910390f35b6100e4610331565b6040516100f19190610686565b60405180910390f35b610114600480360381019061010f9190610581565b61035a565b005b60026020528060005260406000206000915090508060000154908060010154905082565b610142610452565b73ffffffffffffffffffffffffffffffffffffffff16610160610331565b73ffffffffffffffffffffffffffffffffffffffff16146101b6576040517f08c379a00000000000000000000000000000000000000000000000000000000081526004016101ad906106fe565b60405180910390fd5b6000600260008473ffffffffffffffffffffffffffffffffffffffff1673ffffffffffffffffffffffffffffffffffffffff168152602001908152602001600020600001541461023b576040517f08c379a00000000000000000000000000000000000000000000000000000000081526004016102329061076a565b60405180910390fd5b6000600260008473ffffffffffffffffffffffffffffffffffffffff1673ffffffffffffffffffffffffffffffffffffffff168152602001908152602001600020905081816001018190555062278d004261029691906107b9565b8160000181905550505050565b6102ab610452565b73ffffffffffffffffffffffffffffffffffffffff166102c9610331565b73ffffffffffffffffffffffffffffffffffffffff161461031f576040517f08c379a0000000000000000000000000000000000000000000000000000000008152600401610316906106fe565b60405180910390fd5b610329600061045a565b565b60015481565b60008060009054906101000a900473ffffffffffffffffffffffffffffffffffffffff16905090565b610362610452565b73ffffffffffffffffffffffffffffffffffffffff16610380610331565b73ffffffffffffffffffffffffffffffffffffffff16146103d6576040517f08c379a00000000000000000000000000000000000000000000000000000000081526004016103cd906106fe565b60405180910390fd5b600073ffffffffffffffffffffffffffffffffffffffff168173ffffffffffffffffffffffffffffffffffffffff161415610446576040517f08c379a000000000000000000000000000000000000000000000000000000000815260040161043d90610881565b60405180910390fd5b61044f8161045a565b50565b600033905090565b60008060009054906101000a900473ffffffffffffffffffffffffffffffffffffffff169050816000806101000a81548173ffffffffffffffffffffffffffffffffffffffff021916908373ffffffffffffffffffffffffffffffffffffffff1602179055508173ffffffffffffffffffffffffffffffffffffffff168173ffffffffffffffffffffffffffffffffffffffff167f8be0079c531659141344cd1fd0a4f28419497f9722a3daafe3b4186f6b6457e060405160405180910390a35050565b600080fd5b600073ffffffffffffffffffffffffffffffffffffffff82169050919050565b600061054e82610523565b9050919050565b61055e81610543565b811461056957600080fd5b50565b60008135905061057b81610555565b92915050565b6000602082840312156105975761059661051e565b5b60006105a58482850161056c565b91505092915050565b6000819050919050565b6105c1816105ae565b82525050565b60006040820190506105dc60008301856105b8565b6105e960208301846105b8565b9392505050565b6105f9816105ae565b811461060457600080fd5b50565b600081359050610616816105f0565b92915050565b600080604083850312156106335761063261051e565b5b60006106418582860161056c565b925050602061065285828601610607565b9150509250929050565b600060208201905061067160008301846105b8565b92915050565b61068081610543565b82525050565b600060208201905061069b6000830184610677565b92915050565b600082825260208201905092915050565b7f4f776e61626c653a2063616c6c6572206973206e6f7420746865206f776e6572600082015250565b60006106e86020836106a1565b91506106f3826106b2565b602082019050919050565b60006020820190508181036000830152610717816106db565b9050919050565b7f42656e656669636961727920616c726561647920726567697374657265640000600082015250565b6000610754601e836106a1565b915061075f8261071e565b602082019050919050565b6000602082019050818103600083015261078381610747565b9050919050565b7f4e487b7100000000000000000000000000000000000000000000000000000000600052601160045260246000fd5b60006107c4826105ae565b91506107cf836105ae565b9250827fffffffffffffffffffffffffffffffffffffffffffffffffffffffffffffffff038211156108045761080361078a565b5b828201905092915050565b7f4f776e61626c653a206e6577206f776e657220697320746865207a65726f206160008201527f6464726573730000000000000000000000000000000000000000000000000000602082015250565b600061086b6026836106a1565b91506108768261080f565b604082019050919050565b6000602082019050818103600083015261089a8161085e565b905091905056fea264697066735822122025c678c1aeca64cc56b856c614ac0e17fa48e23a1ce7a992539c56ef122d73de64736f6c634300080b0033",
  "linkReferences": {},
  "deployedLinkReferences": {}
}