{
  "_format": "hh-sol-artifact-1",
  "contractName": "VestingContract",
  "sourceName": "contracts/FFT/Vesting.sol",
  "abi": [
    {
      "inputs": [
        {
          "internalType": "address",
          "name": "_token",
          "type": "address"
        }
      ],
      "stateMutability": "nonpayable",
      "type": "constructor"
    },
    {
      "anonymous": false,
      "inputs": [
        {
          "indexed": true,
          "internalType": "address",
          "name": "previousOwner",
          "type": "address"
        },
        {
          "indexed": true,
          "internalType": "address",
          "name": "newOwner",
          "type": "address"
        }
      ],
      "name": "OwnershipTransferred",
      "type": "event"
    },
    {
      "inputs": [
        {
          "internalType": "address",
          "name": "",
          "type": "address"
        }
      ],
      "name": "beneficiaries",
      "outputs": [
        {
          "internalType": "uint256",
          "name": "vestStart",
          "type": "uint256"
        },
        {
          "internalType": "uint256",
          "name": "claimed",
          "type": "uint256"
        },
        {
          "internalType": "uint256",
          "name": "vested",
          "type": "uint256"
        }
      ],
      "stateMutability": "view",
      "type": "function"
    },
    {
      "inputs": [
        {
          "internalType": "uint256",
          "name": "amount",
          "type": "uint256"
        }
      ],
      "name": "claim",
      "outputs": [],
      "stateMutability": "nonpayable",
      "type": "function"
    },
    {
      "inputs": [],
      "name": "owner",
      "outputs": [
        {
          "internalType": "address",
          "name": "",
          "type": "address"
        }
      ],
      "stateMutability": "view",
      "type": "function"
    },
    {
      "inputs": [],
      "name": "renounceOwnership",
      "outputs": [],
      "stateMutability": "nonpayable",
      "type": "function"
    },
    {
      "inputs": [],
      "name": "token",
      "outputs": [
        {
          "internalType": "contract ERC20",
          "name": "",
          "type": "address"
        }
      ],
      "stateMutability": "view",
      "type": "function"
    },
    {
      "inputs": [
        {
          "internalType": "address",
          "name": "newOwner",
          "type": "address"
        }
      ],
      "name": "transferOwnership",
      "outputs": [],
      "stateMutability": "nonpayable",
      "type": "function"
    },
    {
      "inputs": [
        {
          "internalType": "address",
          "name": "addr",
          "type": "address"
        },
        {
          "internalType": "uint256",
          "name": "amount",
          "type": "uint256"
        }
      ],
      "name": "vest",
      "outputs": [],
      "stateMutability": "nonpayable",
      "type": "function"
    },
    {
      "inputs": [],
      "name": "vestingPeriodDays",
      "outputs": [
        {
          "internalType": "uint256",
          "name": "",
          "type": "uint256"
        }
      ],
      "stateMutability": "view",
      "type": "function"
    }
  ],
  "bytecode": "0x6080604052601e60015560006002553480156200001b57600080fd5b506040516200129a3803806200129a8339818101604052810190620000419190620001df565b6200006162000055620000a960201b60201c565b620000b160201b60201c565b80600360006101000a81548173ffffffffffffffffffffffffffffffffffffffff021916908373ffffffffffffffffffffffffffffffffffffffff1602179055505062000211565b600033905090565b60008060009054906101000a900473ffffffffffffffffffffffffffffffffffffffff169050816000806101000a81548173ffffffffffffffffffffffffffffffffffffffff021916908373ffffffffffffffffffffffffffffffffffffffff1602179055508173ffffffffffffffffffffffffffffffffffffffff168173ffffffffffffffffffffffffffffffffffffffff167f8be0079c531659141344cd1fd0a4f28419497f9722a3daafe3b4186f6b6457e060405160405180910390a35050565b600080fd5b600073ffffffffffffffffffffffffffffffffffffffff82169050919050565b6000620001a7826200017a565b9050919050565b620001b9816200019a565b8114620001c557600080fd5b50565b600081519050620001d981620001ae565b92915050565b600060208284031215620001f857620001f762000175565b5b60006200020884828501620001c8565b91505092915050565b61107980620002216000396000f3fe608060405234801561001057600080fd5b50600436106100885760003560e01c80638da5cb5b1161005b5780638da5cb5b14610101578063a9a084961461011f578063f2fde38b1461013d578063fc0c546a1461015957610088565b8063015677391461008d5780632797c6c8146100bf578063379607f5146100db578063715018a6146100f7575b600080fd5b6100a760048036038101906100a29190610978565b610177565b6040516100b6939291906109be565b60405180910390f35b6100d960048036038101906100d49190610a21565b6101a1565b005b6100f560048036038101906100f09190610a61565b610489565b005b6100ff610674565b005b6101096106fc565b6040516101169190610a9d565b60405180910390f35b610127610725565b6040516101349190610ab8565b60405180910390f35b61015760048036038101906101529190610978565b61072b565b005b610161610823565b60405161016e9190610b32565b60405180910390f35b60046020528060005260406000206000915090508060000154908060010154908060020154905083565b6101a9610849565b73ffffffffffffffffffffffffffffffffffffffff166101c76106fc565b73ffffffffffffffffffffffffffffffffffffffff161461021d576040517f08c379a000000000000000000000000000000000000000000000000000000000815260040161021490610baa565b60405180910390fd5b6000600460008473ffffffffffffffffffffffffffffffffffffffff1673ffffffffffffffffffffffffffffffffffffffff16815260200190815260200160002060000154146102a2576040517f08c379a000000000000000000000000000000000000000000000000000000000815260040161029990610c16565b60405180910390fd5b80600360009054906101000a900473ffffffffffffffffffffffffffffffffffffffff1673ffffffffffffffffffffffffffffffffffffffff1663dd62ed3e33306040518363ffffffff1660e01b8152600401610300929190610c36565b602060405180830381865afa15801561031d573d6000803e3d6000fd5b505050506040513d601f19601f820116820180604052508101906103419190610c74565b1015610382576040517f08c379a000000000000000000000000000000000000000000000000000000000815260040161037990610ced565b60405180910390fd5b600360009054906101000a900473ffffffffffffffffffffffffffffffffffffffff1673ffffffffffffffffffffffffffffffffffffffff166323b872dd3330846040518463ffffffff1660e01b81526004016103e193929190610d0d565b6020604051808303816000875af1158015610400573d6000803e3d6000fd5b505050506040513d601f19601f820116820180604052508101906104249190610d7c565b506000600460008473ffffffffffffffffffffffffffffffffffffffff1673ffffffffffffffffffffffffffffffffffffffff168152602001908152602001600020905081816002018190555060008160010181905550428160000181905550505050565b6000600460003373ffffffffffffffffffffffffffffffffffffffff1673ffffffffffffffffffffffffffffffffffffffff16815260200190815260200160002090506000620151808260000154426104e29190610dd8565b6104ec9190610e3b565b905060006305f5e1008084600101546105059190610e6c565b83612710600154612710886002015461051e9190610e6c565b6105289190610e3b565b6105329190610e6c565b61053c9190610e6c565b6105469190610dd8565b6105509190610e3b565b90506001548210610572578260010154836002015461056f9190610dd8565b90505b808411156105b5576040517f08c379a00000000000000000000000000000000000000000000000000000000081526004016105ac90610f12565b60405180910390fd5b8383600101546105c59190610f32565b8360010181905550600360009054906101000a900473ffffffffffffffffffffffffffffffffffffffff1673ffffffffffffffffffffffffffffffffffffffff1663a9059cbb33866040518363ffffffff1660e01b815260040161062a929190610f88565b6020604051808303816000875af1158015610649573d6000803e3d6000fd5b505050506040513d601f19601f8201168201806040525081019061066d9190610d7c565b5050505050565b61067c610849565b73ffffffffffffffffffffffffffffffffffffffff1661069a6106fc565b73ffffffffffffffffffffffffffffffffffffffff16146106f0576040517f08c379a00000000000000000000000000000000000000000000000000000000081526004016106e790610baa565b60405180910390fd5b6106fa6000610851565b565b60008060009054906101000a900473ffffffffffffffffffffffffffffffffffffffff16905090565b60015481565b610733610849565b73ffffffffffffffffffffffffffffffffffffffff166107516106fc565b73ffffffffffffffffffffffffffffffffffffffff16146107a7576040517f08c379a000000000000000000000000000000000000000000000000000000000815260040161079e90610baa565b60405180910390fd5b600073ffffffffffffffffffffffffffffffffffffffff168173ffffffffffffffffffffffffffffffffffffffff161415610817576040517f08c379a000000000000000000000000000000000000000000000000000000000815260040161080e90611023565b60405180910390fd5b61082081610851565b50565b600360009054906101000a900473ffffffffffffffffffffffffffffffffffffffff1681565b600033905090565b60008060009054906101000a900473ffffffffffffffffffffffffffffffffffffffff169050816000806101000a81548173ffffffffffffffffffffffffffffffffffffffff021916908373ffffffffffffffffffffffffffffffffffffffff1602179055508173ffffffffffffffffffffffffffffffffffffffff168173ffffffffffffffffffffffffffffffffffffffff167f8be0079c531659141344cd1fd0a4f28419497f9722a3daafe3b4186f6b6457e060405160405180910390a35050565b600080fd5b600073ffffffffffffffffffffffffffffffffffffffff82169050919050565b60006109458261091a565b9050919050565b6109558161093a565b811461096057600080fd5b50565b6000813590506109728161094c565b92915050565b60006020828403121561098e5761098d610915565b5b600061099c84828501610963565b91505092915050565b6000819050919050565b6109b8816109a5565b82525050565b60006060820190506109d360008301866109af565b6109e060208301856109af565b6109ed60408301846109af565b949350505050565b6109fe816109a5565b8114610a0957600080fd5b50565b600081359050610a1b816109f5565b92915050565b60008060408385031215610a3857610a37610915565b5b6000610a4685828601610963565b9250506020610a5785828601610a0c565b9150509250929050565b600060208284031215610a7757610a76610915565b5b6000610a8584828501610a0c565b91505092915050565b610a978161093a565b82525050565b6000602082019050610ab26000830184610a8e565b92915050565b6000602082019050610acd60008301846109af565b92915050565b6000819050919050565b6000610af8610af3610aee8461091a565b610ad3565b61091a565b9050919050565b6000610b0a82610add565b9050919050565b6000610b1c82610aff565b9050919050565b610b2c81610b11565b82525050565b6000602082019050610b476000830184610b23565b92915050565b600082825260208201905092915050565b7f4f776e61626c653a2063616c6c6572206973206e6f7420746865206f776e6572600082015250565b6000610b94602083610b4d565b9150610b9f82610b5e565b602082019050919050565b60006020820190508181036000830152610bc381610b87565b9050919050565b7f42656e656669636961727920616c726561647920726567697374657265640000600082015250565b6000610c00601e83610b4d565b9150610c0b82610bca565b602082019050919050565b60006020820190508181036000830152610c2f81610bf3565b9050919050565b6000604082019050610c4b6000830185610a8e565b610c586020830184610a8e565b9392505050565b600081519050610c6e816109f5565b92915050565b600060208284031215610c8a57610c89610915565b5b6000610c9884828501610c5f565b91505092915050565b7f6e6f7420656e6f75676820636f696e7320616c6c6f7765640000000000000000600082015250565b6000610cd7601883610b4d565b9150610ce282610ca1565b602082019050919050565b60006020820190508181036000830152610d0681610cca565b9050919050565b6000606082019050610d226000830186610a8e565b610d2f6020830185610a8e565b610d3c60408301846109af565b949350505050565b60008115159050919050565b610d5981610d44565b8114610d6457600080fd5b50565b600081519050610d7681610d50565b92915050565b600060208284031215610d9257610d91610915565b5b6000610da084828501610d67565b91505092915050565b7f4e487b7100000000000000000000000000000000000000000000000000000000600052601160045260246000fd5b6000610de3826109a5565b9150610dee836109a5565b925082821015610e0157610e00610da9565b5b828203905092915050565b7f4e487b7100000000000000000000000000000000000000000000000000000000600052601260045260246000fd5b6000610e46826109a5565b9150610e51836109a5565b925082610e6157610e60610e0c565b5b828204905092915050565b6000610e77826109a5565b9150610e82836109a5565b9250817fffffffffffffffffffffffffffffffffffffffffffffffffffffffffffffffff0483118215151615610ebb57610eba610da9565b5b828202905092915050565b7f4e6f7420656e6f75676820636f696e7320746f20636c61696d00000000000000600082015250565b6000610efc601983610b4d565b9150610f0782610ec6565b602082019050919050565b60006020820190508181036000830152610f2b81610eef565b9050919050565b6000610f3d826109a5565b9150610f48836109a5565b9250827fffffffffffffffffffffffffffffffffffffffffffffffffffffffffffffffff03821115610f7d57610f7c610da9565b5b828201905092915050565b6000604082019050610f9d6000830185610a8e565b610faa60208301846109af565b9392505050565b7f4f776e61626c653a206e6577206f776e657220697320746865207a65726f206160008201527f6464726573730000000000000000000000000000000000000000000000000000602082015250565b600061100d602683610b4d565b915061101882610fb1565b604082019050919050565b6000602082019050818103600083015261103c81611000565b905091905056fea2646970667358221220bb6042c67f39ac76825098dc52736f1f58d3e20c7cd2024f4a73b75cc8f6a95264736f6c634300080b0033",
  "linkReferences": {},
  "deployedLinkReferences": {}
}