{
  "_format": "hh-sol-artifact-1",
  "contractName": "VestingContract",
  "sourceName": "contracts/FFT/Vesting.sol",
  "abi": [
    {
      "inputs": [
        {
          "internalType": "address",
          "name": "_token",
          "type": "address"
        }
      ],
      "stateMutability": "nonpayable",
      "type": "constructor"
    },
    {
      "anonymous": false,
      "inputs": [
        {
          "indexed": true,
          "internalType": "address",
          "name": "previousOwner",
          "type": "address"
        },
        {
          "indexed": true,
          "internalType": "address",
          "name": "newOwner",
          "type": "address"
        }
      ],
      "name": "OwnershipTransferred",
      "type": "event"
    },
    {
      "inputs": [
        {
          "internalType": "address",
          "name": "",
          "type": "address"
        }
      ],
      "name": "beneficiaries",
      "outputs": [
        {
          "internalType": "uint256",
          "name": "vestStart",
          "type": "uint256"
        },
        {
          "internalType": "uint256",
          "name": "claimed",
          "type": "uint256"
        },
        {
          "internalType": "uint256",
          "name": "vested",
          "type": "uint256"
        }
      ],
      "stateMutability": "view",
      "type": "function"
    },
    {
      "inputs": [
        {
          "internalType": "uint256",
          "name": "amount",
          "type": "uint256"
        }
      ],
      "name": "claim",
      "outputs": [],
      "stateMutability": "nonpayable",
      "type": "function"
    },
    {
      "inputs": [],
      "name": "owner",
      "outputs": [
        {
          "internalType": "address",
          "name": "",
          "type": "address"
        }
      ],
      "stateMutability": "view",
      "type": "function"
    },
    {
      "inputs": [],
      "name": "renounceOwnership",
      "outputs": [],
      "stateMutability": "nonpayable",
      "type": "function"
    },
    {
      "inputs": [],
      "name": "token",
      "outputs": [
        {
          "internalType": "contract ERC20",
          "name": "",
          "type": "address"
        }
      ],
      "stateMutability": "view",
      "type": "function"
    },
    {
      "inputs": [
        {
          "internalType": "address",
          "name": "newOwner",
          "type": "address"
        }
      ],
      "name": "transferOwnership",
      "outputs": [],
      "stateMutability": "nonpayable",
      "type": "function"
    },
    {
      "inputs": [
        {
          "internalType": "address",
          "name": "addr",
          "type": "address"
        },
        {
          "internalType": "uint256",
          "name": "amount",
          "type": "uint256"
        }
      ],
      "name": "vest",
      "outputs": [],
      "stateMutability": "nonpayable",
      "type": "function"
    },
    {
      "inputs": [],
      "name": "vestingPeriodDays",
      "outputs": [
        {
          "internalType": "uint256",
          "name": "",
          "type": "uint256"
        }
      ],
      "stateMutability": "view",
      "type": "function"
    }
  ],
  "bytecode": "0x6080604052601e60015560006002553480156200001b57600080fd5b50604051620011de380380620011de8339818101604052810190620000419190620001df565b6200006162000055620000a960201b60201c565b620000b160201b60201c565b80600360006101000a81548173ffffffffffffffffffffffffffffffffffffffff021916908373ffffffffffffffffffffffffffffffffffffffff1602179055505062000211565b600033905090565b60008060009054906101000a900473ffffffffffffffffffffffffffffffffffffffff169050816000806101000a81548173ffffffffffffffffffffffffffffffffffffffff021916908373ffffffffffffffffffffffffffffffffffffffff1602179055508173ffffffffffffffffffffffffffffffffffffffff168173ffffffffffffffffffffffffffffffffffffffff167f8be0079c531659141344cd1fd0a4f28419497f9722a3daafe3b4186f6b6457e060405160405180910390a35050565b600080fd5b600073ffffffffffffffffffffffffffffffffffffffff82169050919050565b6000620001a7826200017a565b9050919050565b620001b9816200019a565b8114620001c557600080fd5b50565b600081519050620001d981620001ae565b92915050565b600060208284031215620001f857620001f762000175565b5b60006200020884828501620001c8565b91505092915050565b610fbd80620002216000396000f3fe608060405234801561001057600080fd5b50600436106100885760003560e01c80638da5cb5b1161005b5780638da5cb5b14610101578063a9a084961461011f578063f2fde38b1461013d578063fc0c546a1461015957610088565b8063015677391461008d5780632797c6c8146100bf578063379607f5146100db578063715018a6146100f7575b600080fd5b6100a760048036038101906100a29190610912565b610177565b6040516100b693929190610958565b60405180910390f35b6100d960048036038101906100d491906109bb565b6101a1565b005b6100f560048036038101906100f091906109fb565b610489565b005b6100ff61060e565b005b610109610696565b6040516101169190610a37565b60405180910390f35b6101276106bf565b6040516101349190610a52565b60405180910390f35b61015760048036038101906101529190610912565b6106c5565b005b6101616107bd565b60405161016e9190610acc565b60405180910390f35b60046020528060005260406000206000915090508060000154908060010154908060020154905083565b6101a96107e3565b73ffffffffffffffffffffffffffffffffffffffff166101c7610696565b73ffffffffffffffffffffffffffffffffffffffff161461021d576040517f08c379a000000000000000000000000000000000000000000000000000000000815260040161021490610b44565b60405180910390fd5b6000600460008473ffffffffffffffffffffffffffffffffffffffff1673ffffffffffffffffffffffffffffffffffffffff16815260200190815260200160002060000154146102a2576040517f08c379a000000000000000000000000000000000000000000000000000000000815260040161029990610bb0565b60405180910390fd5b80600360009054906101000a900473ffffffffffffffffffffffffffffffffffffffff1673ffffffffffffffffffffffffffffffffffffffff1663dd62ed3e33306040518363ffffffff1660e01b8152600401610300929190610bd0565b602060405180830381865afa15801561031d573d6000803e3d6000fd5b505050506040513d601f19601f820116820180604052508101906103419190610c0e565b1015610382576040517f08c379a000000000000000000000000000000000000000000000000000000000815260040161037990610c87565b60405180910390fd5b600360009054906101000a900473ffffffffffffffffffffffffffffffffffffffff1673ffffffffffffffffffffffffffffffffffffffff166323b872dd3330846040518463ffffffff1660e01b81526004016103e193929190610ca7565b6020604051808303816000875af1158015610400573d6000803e3d6000fd5b505050506040513d601f19601f820116820180604052508101906104249190610d16565b506000600460008473ffffffffffffffffffffffffffffffffffffffff1673ffffffffffffffffffffffffffffffffffffffff168152602001908152602001600020905081816002018190555060008160010181905550428160000181905550505050565b6000600460003373ffffffffffffffffffffffffffffffffffffffff1673ffffffffffffffffffffffffffffffffffffffff16815260200190815260200160002090506000620151808260000154426104e29190610d72565b6104ec9190610dd5565b9050600060015483600201546105029190610dd5565b90506000836001015483836105179190610e06565b6105219190610d72565b905080851115610566576040517f08c379a000000000000000000000000000000000000000000000000000000000815260040161055d90610eac565b60405180910390fd5b600360009054906101000a900473ffffffffffffffffffffffffffffffffffffffff1673ffffffffffffffffffffffffffffffffffffffff1663a9059cbb33876040518363ffffffff1660e01b81526004016105c3929190610ecc565b6020604051808303816000875af11580156105e2573d6000803e3d6000fd5b505050506040513d601f19601f820116820180604052508101906106069190610d16565b505050505050565b6106166107e3565b73ffffffffffffffffffffffffffffffffffffffff16610634610696565b73ffffffffffffffffffffffffffffffffffffffff161461068a576040517f08c379a000000000000000000000000000000000000000000000000000000000815260040161068190610b44565b60405180910390fd5b61069460006107eb565b565b60008060009054906101000a900473ffffffffffffffffffffffffffffffffffffffff16905090565b60015481565b6106cd6107e3565b73ffffffffffffffffffffffffffffffffffffffff166106eb610696565b73ffffffffffffffffffffffffffffffffffffffff1614610741576040517f08c379a000000000000000000000000000000000000000000000000000000000815260040161073890610b44565b60405180910390fd5b600073ffffffffffffffffffffffffffffffffffffffff168173ffffffffffffffffffffffffffffffffffffffff1614156107b1576040517f08c379a00000000000000000000000000000000000000000000000000000000081526004016107a890610f67565b60405180910390fd5b6107ba816107eb565b50565b600360009054906101000a900473ffffffffffffffffffffffffffffffffffffffff1681565b600033905090565b60008060009054906101000a900473ffffffffffffffffffffffffffffffffffffffff169050816000806101000a81548173ffffffffffffffffffffffffffffffffffffffff021916908373ffffffffffffffffffffffffffffffffffffffff1602179055508173ffffffffffffffffffffffffffffffffffffffff168173ffffffffffffffffffffffffffffffffffffffff167f8be0079c531659141344cd1fd0a4f28419497f9722a3daafe3b4186f6b6457e060405160405180910390a35050565b600080fd5b600073ffffffffffffffffffffffffffffffffffffffff82169050919050565b60006108df826108b4565b9050919050565b6108ef816108d4565b81146108fa57600080fd5b50565b60008135905061090c816108e6565b92915050565b600060208284031215610928576109276108af565b5b6000610936848285016108fd565b91505092915050565b6000819050919050565b6109528161093f565b82525050565b600060608201905061096d6000830186610949565b61097a6020830185610949565b6109876040830184610949565b949350505050565b6109988161093f565b81146109a357600080fd5b50565b6000813590506109b58161098f565b92915050565b600080604083850312156109d2576109d16108af565b5b60006109e0858286016108fd565b92505060206109f1858286016109a6565b9150509250929050565b600060208284031215610a1157610a106108af565b5b6000610a1f848285016109a6565b91505092915050565b610a31816108d4565b82525050565b6000602082019050610a4c6000830184610a28565b92915050565b6000602082019050610a676000830184610949565b92915050565b6000819050919050565b6000610a92610a8d610a88846108b4565b610a6d565b6108b4565b9050919050565b6000610aa482610a77565b9050919050565b6000610ab682610a99565b9050919050565b610ac681610aab565b82525050565b6000602082019050610ae16000830184610abd565b92915050565b600082825260208201905092915050565b7f4f776e61626c653a2063616c6c6572206973206e6f7420746865206f776e6572600082015250565b6000610b2e602083610ae7565b9150610b3982610af8565b602082019050919050565b60006020820190508181036000830152610b5d81610b21565b9050919050565b7f42656e656669636961727920616c726561647920726567697374657265640000600082015250565b6000610b9a601e83610ae7565b9150610ba582610b64565b602082019050919050565b60006020820190508181036000830152610bc981610b8d565b9050919050565b6000604082019050610be56000830185610a28565b610bf26020830184610a28565b9392505050565b600081519050610c088161098f565b92915050565b600060208284031215610c2457610c236108af565b5b6000610c3284828501610bf9565b91505092915050565b7f6e6f7420656e6f75676820636f696e7320616c6c6f7765640000000000000000600082015250565b6000610c71601883610ae7565b9150610c7c82610c3b565b602082019050919050565b60006020820190508181036000830152610ca081610c64565b9050919050565b6000606082019050610cbc6000830186610a28565b610cc96020830185610a28565b610cd66040830184610949565b949350505050565b60008115159050919050565b610cf381610cde565b8114610cfe57600080fd5b50565b600081519050610d1081610cea565b92915050565b600060208284031215610d2c57610d2b6108af565b5b6000610d3a84828501610d01565b91505092915050565b7f4e487b7100000000000000000000000000000000000000000000000000000000600052601160045260246000fd5b6000610d7d8261093f565b9150610d888361093f565b925082821015610d9b57610d9a610d43565b5b828203905092915050565b7f4e487b7100000000000000000000000000000000000000000000000000000000600052601260045260246000fd5b6000610de08261093f565b9150610deb8361093f565b925082610dfb57610dfa610da6565b5b828204905092915050565b6000610e118261093f565b9150610e1c8361093f565b9250817fffffffffffffffffffffffffffffffffffffffffffffffffffffffffffffffff0483118215151615610e5557610e54610d43565b5b828202905092915050565b7f4e6f7420656e6f75676820636f696e7320746f20636c61696d00000000000000600082015250565b6000610e96601983610ae7565b9150610ea182610e60565b602082019050919050565b60006020820190508181036000830152610ec581610e89565b9050919050565b6000604082019050610ee16000830185610a28565b610eee6020830184610949565b9392505050565b7f4f776e61626c653a206e6577206f776e657220697320746865207a65726f206160008201527f6464726573730000000000000000000000000000000000000000000000000000602082015250565b6000610f51602683610ae7565b9150610f5c82610ef5565b604082019050919050565b60006020820190508181036000830152610f8081610f44565b905091905056fea26469706673582212203ad5ba97c017e96b51df323c21e343d444fc0517ef388557b8565e39a8f1e59864736f6c634300080b0033",
  "linkReferences": {},
  "deployedLinkReferences": {}
}