{
  "_format": "hh-sol-artifact-1",
  "contractName": "VestingContract",
  "sourceName": "contracts/FFT/Vesting.sol",
  "abi": [
    {
      "inputs": [],
      "name": "getBeneficiariesCount",
      "outputs": [
        {
          "internalType": "uint256",
          "name": "",
          "type": "uint256"
        }
      ],
      "stateMutability": "view",
      "type": "function"
    },
    {
      "inputs": [
        {
          "internalType": "address",
          "name": "addr",
          "type": "address"
        }
      ],
      "name": "getBeneficiary",
      "outputs": [
        {
          "internalType": "string",
          "name": "",
          "type": "string"
        }
      ],
      "stateMutability": "view",
      "type": "function"
    },
    {
      "inputs": [
        {
          "internalType": "address",
          "name": "addr",
          "type": "address"
        },
        {
          "internalType": "string",
          "name": "name",
          "type": "string"
        }
      ],
      "name": "registerBeneficiary",
      "outputs": [],
      "stateMutability": "nonpayable",
      "type": "function"
    }
  ],
  "bytecode": "0x608060405234801561001057600080fd5b5061068e806100206000396000f3fe608060405234801561001057600080fd5b50600436106100415760003560e01c8063197cdfd914610046578063505a1b3114610062578063669be70114610092575b600080fd5b610060600480360381019061005b9190610490565b6100b0565b005b61007c600480360381019061007791906104ec565b610153565b60405161008991906105a1565b60405180910390f35b61009a61022c565b6040516100a791906105dc565b60405180910390f35b60008060008473ffffffffffffffffffffffffffffffffffffffff1673ffffffffffffffffffffffffffffffffffffffff1681526020019081526020016000209050828160000160006101000a81548173ffffffffffffffffffffffffffffffffffffffff021916908373ffffffffffffffffffffffffffffffffffffffff1602179055508181600101908051906020019061014d929190610235565b50505050565b606060008060008473ffffffffffffffffffffffffffffffffffffffff1673ffffffffffffffffffffffffffffffffffffffff16815260200190815260200160002090508060010180546101a690610626565b80601f01602080910402602001604051908101604052809291908181526020018280546101d290610626565b801561021f5780601f106101f45761010080835404028352916020019161021f565b820191906000526020600020905b81548152906001019060200180831161020257829003601f168201915b5050505050915050919050565b60006001905090565b82805461024190610626565b90600052602060002090601f01602090048101928261026357600085556102aa565b82601f1061027c57805160ff19168380011785556102aa565b828001600101855582156102aa579182015b828111156102a957825182559160200191906001019061028e565b5b5090506102b791906102bb565b5090565b5b808211156102d45760008160009055506001016102bc565b5090565b6000604051905090565b600080fd5b600080fd5b600073ffffffffffffffffffffffffffffffffffffffff82169050919050565b6000610317826102ec565b9050919050565b6103278161030c565b811461033257600080fd5b50565b6000813590506103448161031e565b92915050565b600080fd5b600080fd5b6000601f19601f8301169050919050565b7f4e487b7100000000000000000000000000000000000000000000000000000000600052604160045260246000fd5b61039d82610354565b810181811067ffffffffffffffff821117156103bc576103bb610365565b5b80604052505050565b60006103cf6102d8565b90506103db8282610394565b919050565b600067ffffffffffffffff8211156103fb576103fa610365565b5b61040482610354565b9050602081019050919050565b82818337600083830152505050565b600061043361042e846103e0565b6103c5565b90508281526020810184848401111561044f5761044e61034f565b5b61045a848285610411565b509392505050565b600082601f8301126104775761047661034a565b5b8135610487848260208601610420565b91505092915050565b600080604083850312156104a7576104a66102e2565b5b60006104b585828601610335565b925050602083013567ffffffffffffffff8111156104d6576104d56102e7565b5b6104e285828601610462565b9150509250929050565b600060208284031215610502576105016102e2565b5b600061051084828501610335565b91505092915050565b600081519050919050565b600082825260208201905092915050565b60005b83811015610553578082015181840152602081019050610538565b83811115610562576000848401525b50505050565b600061057382610519565b61057d8185610524565b935061058d818560208601610535565b61059681610354565b840191505092915050565b600060208201905081810360008301526105bb8184610568565b905092915050565b6000819050919050565b6105d6816105c3565b82525050565b60006020820190506105f160008301846105cd565b92915050565b7f4e487b7100000000000000000000000000000000000000000000000000000000600052602260045260246000fd5b6000600282049050600182168061063e57607f821691505b60208210811415610652576106516105f7565b5b5091905056fea264697066735822122089256d524a91a17f9af6258e1c23c32ae7840e0e37aaee5b2a3713e745199bf964736f6c634300080b0033",
  "linkReferences": {},
  "deployedLinkReferences": {}
}