{
  "_format": "hh-sol-artifact-1",
  "contractName": "VestingContract",
  "sourceName": "contracts/FFT/Vesting.sol",
  "abi": [
    {
      "anonymous": false,
      "inputs": [
        {
          "indexed": true,
          "internalType": "address",
          "name": "previousOwner",
          "type": "address"
        },
        {
          "indexed": true,
          "internalType": "address",
          "name": "newOwner",
          "type": "address"
        }
      ],
      "name": "OwnershipTransferred",
      "type": "event"
    },
    {
      "inputs": [
        {
          "internalType": "address",
          "name": "",
          "type": "address"
        }
      ],
      "name": "beneficiaries",
      "outputs": [
        {
          "internalType": "address",
          "name": "addr",
          "type": "address"
        },
        {
          "internalType": "uint256",
          "name": "vestEnd",
          "type": "uint256"
        },
        {
          "internalType": "uint256",
          "name": "vested",
          "type": "uint256"
        }
      ],
      "stateMutability": "view",
      "type": "function"
    },
    {
      "inputs": [],
      "name": "owner",
      "outputs": [
        {
          "internalType": "address",
          "name": "",
          "type": "address"
        }
      ],
      "stateMutability": "view",
      "type": "function"
    },
    {
      "inputs": [],
      "name": "renounceOwnership",
      "outputs": [],
      "stateMutability": "nonpayable",
      "type": "function"
    },
    {
      "inputs": [],
      "name": "testValue",
      "outputs": [
        {
          "internalType": "uint256",
          "name": "",
          "type": "uint256"
        }
      ],
      "stateMutability": "view",
      "type": "function"
    },
    {
      "inputs": [
        {
          "internalType": "address",
          "name": "newOwner",
          "type": "address"
        }
      ],
      "name": "transferOwnership",
      "outputs": [],
      "stateMutability": "nonpayable",
      "type": "function"
    },
    {
      "inputs": [
        {
          "internalType": "address",
          "name": "addr",
          "type": "address"
        },
        {
          "internalType": "uint256",
          "name": "amount",
          "type": "uint256"
        }
      ],
      "name": "vest",
      "outputs": [],
      "stateMutability": "nonpayable",
      "type": "function"
    }
  ],
  "bytecode": "0x6080604052600060015534801561001557600080fd5b5061003261002761003760201b60201c565b61003f60201b60201c565b610103565b600033905090565b60008060009054906101000a900473ffffffffffffffffffffffffffffffffffffffff169050816000806101000a81548173ffffffffffffffffffffffffffffffffffffffff021916908373ffffffffffffffffffffffffffffffffffffffff1602179055508173ffffffffffffffffffffffffffffffffffffffff168173ffffffffffffffffffffffffffffffffffffffff167f8be0079c531659141344cd1fd0a4f28419497f9722a3daafe3b4186f6b6457e060405160405180910390a35050565b61094f806101126000396000f3fe608060405234801561001057600080fd5b50600436106100625760003560e01c806301567739146100675780632797c6c814610099578063715018a6146100b55780638af5de72146100bf5780638da5cb5b146100dd578063f2fde38b146100fb575b600080fd5b610081600480360381019061007c91906105eb565b610117565b60405161009093929190610640565b60405180910390f35b6100b360048036038101906100ae91906106a3565b610161565b005b6100bd61030d565b005b6100c7610395565b6040516100d491906106e3565b60405180910390f35b6100e561039b565b6040516100f291906106fe565b60405180910390f35b610115600480360381019061011091906105eb565b6103c4565b005b60026020528060005260406000206000915090508060000160009054906101000a900473ffffffffffffffffffffffffffffffffffffffff16908060010154908060020154905083565b6101696104bc565b73ffffffffffffffffffffffffffffffffffffffff1661018761039b565b73ffffffffffffffffffffffffffffffffffffffff16146101dd576040517f08c379a00000000000000000000000000000000000000000000000000000000081526004016101d490610776565b60405180910390fd5b6000600260008473ffffffffffffffffffffffffffffffffffffffff1673ffffffffffffffffffffffffffffffffffffffff1681526020019081526020016000206002015414610262576040517f08c379a0000000000000000000000000000000000000000000000000000000008152600401610259906107e2565b60405180910390fd5b6000600260008473ffffffffffffffffffffffffffffffffffffffff1673ffffffffffffffffffffffffffffffffffffffff1681526020019081526020016000209050828160000160006101000a81548173ffffffffffffffffffffffffffffffffffffffff021916908373ffffffffffffffffffffffffffffffffffffffff16021790555081816002018190555062278d00426103009190610831565b8160010181905550505050565b6103156104bc565b73ffffffffffffffffffffffffffffffffffffffff1661033361039b565b73ffffffffffffffffffffffffffffffffffffffff1614610389576040517f08c379a000000000000000000000000000000000000000000000000000000000815260040161038090610776565b60405180910390fd5b61039360006104c4565b565b60015481565b60008060009054906101000a900473ffffffffffffffffffffffffffffffffffffffff16905090565b6103cc6104bc565b73ffffffffffffffffffffffffffffffffffffffff166103ea61039b565b73ffffffffffffffffffffffffffffffffffffffff1614610440576040517f08c379a000000000000000000000000000000000000000000000000000000000815260040161043790610776565b60405180910390fd5b600073ffffffffffffffffffffffffffffffffffffffff168173ffffffffffffffffffffffffffffffffffffffff1614156104b0576040517f08c379a00000000000000000000000000000000000000000000000000000000081526004016104a7906108f9565b60405180910390fd5b6104b9816104c4565b50565b600033905090565b60008060009054906101000a900473ffffffffffffffffffffffffffffffffffffffff169050816000806101000a81548173ffffffffffffffffffffffffffffffffffffffff021916908373ffffffffffffffffffffffffffffffffffffffff1602179055508173ffffffffffffffffffffffffffffffffffffffff168173ffffffffffffffffffffffffffffffffffffffff167f8be0079c531659141344cd1fd0a4f28419497f9722a3daafe3b4186f6b6457e060405160405180910390a35050565b600080fd5b600073ffffffffffffffffffffffffffffffffffffffff82169050919050565b60006105b88261058d565b9050919050565b6105c8816105ad565b81146105d357600080fd5b50565b6000813590506105e5816105bf565b92915050565b60006020828403121561060157610600610588565b5b600061060f848285016105d6565b91505092915050565b610621816105ad565b82525050565b6000819050919050565b61063a81610627565b82525050565b60006060820190506106556000830186610618565b6106626020830185610631565b61066f6040830184610631565b949350505050565b61068081610627565b811461068b57600080fd5b50565b60008135905061069d81610677565b92915050565b600080604083850312156106ba576106b9610588565b5b60006106c8858286016105d6565b92505060206106d98582860161068e565b9150509250929050565b60006020820190506106f86000830184610631565b92915050565b60006020820190506107136000830184610618565b92915050565b600082825260208201905092915050565b7f4f776e61626c653a2063616c6c6572206973206e6f7420746865206f776e6572600082015250565b6000610760602083610719565b915061076b8261072a565b602082019050919050565b6000602082019050818103600083015261078f81610753565b9050919050565b7f42656e656669636961727920616c726561647920726567697374657265640000600082015250565b60006107cc601e83610719565b91506107d782610796565b602082019050919050565b600060208201905081810360008301526107fb816107bf565b9050919050565b7f4e487b7100000000000000000000000000000000000000000000000000000000600052601160045260246000fd5b600061083c82610627565b915061084783610627565b9250827fffffffffffffffffffffffffffffffffffffffffffffffffffffffffffffffff0382111561087c5761087b610802565b5b828201905092915050565b7f4f776e61626c653a206e6577206f776e657220697320746865207a65726f206160008201527f6464726573730000000000000000000000000000000000000000000000000000602082015250565b60006108e3602683610719565b91506108ee82610887565b604082019050919050565b60006020820190508181036000830152610912816108d6565b905091905056fea2646970667358221220d7833931227ae7933b7f15f4371267310b3b9f3449b522f0f62be66577931b9964736f6c634300080b0033",
  "linkReferences": {},
  "deployedLinkReferences": {}
}